:020000040800F2
:10000000FF4F0020291A0008711A0008711A000811
:10001000711A0008711A0008711A00080000000027
:10002000000000000000000000000000210800089F
:10003000711A0008000000007D080008C5080008CB
:10004000711A0008711A0008711A0008711A000864
:10005000711A0008711A0008711A0008711A000854
:10006000711A0008711A0008711A0008711A000844
:10007000711A0008711A0008711A0008711A000834
:10008000711A0008711A0008711A0008711A000824
:10009000711A0008711A0008711A0008711A000814
:1000A000711A0008711A0008711A0008711A000804
:1000B00035020008711A0008711A0008711A000848
:1000C000711A0008711A0008711A0008711A0008E4
:1000D000711A0008711A0008F9010008711A000865
:1000E000E1010008711A0008711A00080000000000
:1000F0000000000000000000000000000000000000
:0C01000000000000000000005FF808F1A3
:1001100010B5054C237833B9044B13B10448AFF341
:1001200000800123237010BD3C040020000000006B
:10013000981D000808B5034B1BB103490348AFF3F2
:10014000008008BD0000000040040020981D000849
:10015000154B002B08BF134B9D46A3F5803A002199
:100160008B460F461348144A121A01F0B7FC0F4B86
:10017000002B00D098470E4B002B00D09847002052
:10018000002104000D000D48002802D00C4801F0A9
:100190006DFD01F07FFC2000290001F03BFC01F027
:1001A00069FC00BF00000800000000000000000023
:1001B000000000003C0400208C1900206D1C000889
:1001C000791C0008054BDA6812F0200F1A6914BF79
:1001D00042F4001242F020021A6170470008014008
:1001E000044B5A69920403D55A6942F400525A6189
:1001F000704700BF000401400C4B1A68920608D5F6
:100200005B68DBB2632B05D0084A136823F0200338
:1002100013607047064BDA6812F0200F1A6914BF9A
:1002200042F4001242F020021A61EDE7004400405F
:10023000000801404FF080410B69094A23F0010397
:100240000B61D36813F0200F136914BF43F400133C
:1002500043F0200313616122024B5A60704700BFD4
:1002600000080140004400401E491F4B8A6930B419
:1002700042F004028A611C684FF4807024F4400448
:100280001C601C68194A44F400141C608C69184DE9
:1002900044F010048C618C69A3F5806344F0010480
:1002A0008C615168134C41F480015160516821F414
:1002B00000015160516821F4401151606A6942F0B7
:1002C00020026A611A6842F400521A609A6842F485
:1002D00000529A60DA6842F40052DA60606030BC22
:1002E000704700BF001002400008014000100140AC
:1002F0000000014000E100E030B44FF0804341F6DF
:100300003F7540F2E7344FF080500D49CA6942F022
:100310000102CA619D62DC62DA680A4942F00102A8
:10032000DA601A6930BC22F001021A615A6942F09F
:1003300001025A611A6842F001021A6008607047AF
:100340000010024000E100E030B440F241354024AA
:100350001148124AC169124B41F40031C161116860
:10036000104841F480411160116841F4006111604E
:10037000116841F440711160DA6842F0E002DA601D
:10038000DA6842F00C02DA609D60DA6842F40052EA
:10039000DA60446030BC7047001002400008014041
:1003A0000044004000E100E030B44FF41F054FF07E
:1003B00000640E4B0E4A19680E4841F001011960A5
:1003C00059680A405A601A6822F0847222F4803216
:1003D0001A601A6822F480221A605A6822F4FE0217
:1003E0005A609D60846030BC704700BF00100240BE
:1003F0000000FFF800ED00E0114A536803F00C0321
:10040000082B0ED153685168C3F38343C90303F12A
:10041000020311D5526892030ED40A4A02FB03F379
:1004200000E0084B064A084852680849C2F3031224
:10043000825CD3400B607047054A02FB03F3F1E78F
:100440000010024000127A00B41D000804000020D1
:1004500000093D0010B5182000F028F9044620B12D
:10046000002340F8043B00F05BF9204610BD00BFBC
:100470002DE9F04106461F460D46904600F0F8FD76
:10048000346867B92C420DD0B8F1000F0CD024EAC3
:100490000505356000F084FE2046BDE8F08135EAB0
:1004A0000403F1D0069B23B900F07AFE2046BDE894
:1004B000F081B8F1000F0CBF00214FF08071CFB96F
:1004C0002943069A301D00F041FF00F069FE38B95B
:1004D0004FF08052124B1A60BFF34F8FBFF36F8FF4
:1004E00001F0C2F88301044607D524F07F4420467A
:1004F000BDE8F08141F08061E2E700F0A5F93468E1
:1005000057B9254205D0B8F1000F02D024EA0505FD
:10051000356000F0A9F9E8E735EA0403F9D1F2E71C
:1005200004ED00E070B506460C4600F08DF9356824
:1005300025EA0404346000F097F9284670BD00BF36
:10054000EFF311834FF0BF0282F31188BFF36F8F77
:10055000BFF34F8F006883F3118870472DE9F04196
:1005600006460C4600F084FD3168306906F10C083F
:1005700021438045316023D000270BE03DB1DB01F2
:1005800041F0007148BF174300F02AFF3168A045D1
:1005900020460DD0D0E9003423F07F4213F0806F65
:1005A00002EA0105EAD0AA42E9D0A0452046F1D1ED
:1005B000FF433940316000F0F3FD3068BDE8F08161
:1005C0004FF0FF37F5E700BF2DE9F04188460546BB
:1005D00016461F4600F04CFD41462C6828460C4349
:1005E000FFF7BCFF04EA0601B14221D02FB92C6805
:1005F00000F0D6FD2046BDE8F0813A4646F0A06105
:10060000281D00F0A3FE00F0CBFD38B94FF080525A
:10061000124B1A60BFF34F8FBFF36F8F01F024F8B6
:10062000830104460DD524F07F442046BDE8F081C7
:100630002B6823EA0101296000F0B2FD2046BDE8E5
:10064000F08100F001F92C6836EA040304BF24EAC3
:1006500006062E6000F008F9E5E700BF04ED00E0B3
:1006600010B5044600F004FD63683BB14FF0007123
:10067000206900F0B5FE6368002BF7D1204600F03A
:100680003FF8BDE8104000F08BBD00BFFFF766BF2C
:1006900038B504460D4600F0D7F8236823EA050371
:1006A0002360BDE8384000F0DFB800BF10B5044655
:1006B00043071CBF20F00704083400F0D9FC0E4BA0
:1006C0001A6872B141F2F7315A6814448C420DD85D
:1006D000A2420BD219685C608C1800F061FD2046C4
:1006E00010BD064A22F007021A60EBE7002400F072
:1006F00057FD204610BD00BF5804002068040020AC
:10070000704700BF0022014B5A6070475804002018
:10071000024B5868C0F59F501830704758040020AD
:100720004FF0FF31002200F1080381600260436056
:10073000C0E90333704700BF00230361704700BF67
:10074000436810B49C6802688C609C6801324B60FE
:100750006160996010BC08610260704730B40D6838
:100760006B1C11D000F1080200E01A4653681C68A7
:10077000AC42FAD904684B60013499608A605160D8
:100780000861046030BC704702695368F2E700BF3B
:10079000036910B4D0E901215C68916081688442EA
:1007A0004A6008BF596000211A680161013A1A6065
:1007B000186810BC704700BF000000000000000077
:1007C000002382B001934FF0BF0383F31188BFF37E
:1007D0006F8FBFF34F8F019B002BFCD002B070478F
:1007E00062480068006880F3088862B661B6BFF3AB
:1007F0004F8FBFF36F8F00DF00BF00BF10B44FF00B
:100800008074064B21F0010140F8202C40E90214CD
:1008100040F80C3C10BC4038704700BFC1070008CE
:10082000074B19680868B0E8F00F80F30988BFF338
:100830006F8F4FF0000080F311884EF00D0E70475F
:10084000EC180020704700BF4FF0BF0383F31188FE
:10085000BFF36F8FBFF34F8F024A136801331360EA
:10086000704700BF08000020034A1368013B136073
:100870000BB983F31188704708000020EFF309805B
:10088000BFF36F8F0E4B1A6820E9F00F10602DE94F
:1008900008404FF0BF0080F3118800F03BFD4FF09F
:1008A000000080F31188BDE8084019680868B0E8C6
:1008B000F00F80F30988BFF36F8F7047AFF30080AC
:1008C000EC18002008B54FF0BF0383F31188BFF385
:1008D0006F8FBFF34F8F00F0EFFB18B14FF08052D6
:1008E000024B1A60002383F3118808BD04ED00E079
:1008F0000022072130B4054B054D064C06481A600E
:100900002A600460196030BC704700BF10E000E04E
:1009100018E000E03F19010014E000E010B50024E9
:10092000104B82B01A6842F47F021A601A6842F0D3
:100930007F421A60FFF7DCFF0B4B1C60FFF750FF94
:1009400000F0E8FC01944FF0BF0383F31188BFF37C
:100950006F8FBFF34F8F019B002BFCD0002002B0A4
:1009600010BD00BF20ED00E00800002008ED00E011
:1009700080B5134C4FF08057124E14E0FFF764FF20
:100980002369DD68281DFFF703FFA369013BA3610D
:100990002368013B2360FFF767FF286BFFF7B0FE7A
:1009A0002846FFF7ADFE2368002BE7D1E369012B52
:1009B000F9D93760BFF34F8FBFF36F8FF3E700BFF5
:1009C0006018002004ED00E0044BD3F88020D268CA
:1009D000D2685268C3F88420704700BF60180020B6
:1009E000F8B50646184C0F46D4F88850D4F88C0059
:1009F0000430FFF7CDFE731C1BD0D4F88C30AD193A
:100A00005D600DD2D4F88000D4F88C100431FFF76B
:100A1000A5FED4F88430AB4288BFC4F88450F8BD3A
:100A2000D4F8A400D4F88C10BDE8F8400431FFF7E6
:100A300095BE002FE1D0D4F88C1004F19000043161
:100A4000BDE8F840FFF77CBE601800200023114885
:100A500030B4C0F8A830D0F8AC309A00D11800EB10
:100A60008101C96909B9013BF7E71A44920084186A
:100A7000216A094D49682A449142216208BF4968A8
:100A8000CA6808BF2162C0F88C2030BCC0F8AC3006
:100A9000704700BF60180020841800202DE9F84F2F
:100AA0004FEA82080646404689461F460B9DFFF7DF
:100AB000FDFD002800F0CF8082465420FFF7F6FDB0
:100AC0000446002800F09080A8F10408D04428F0E3
:100AD0000708C0F830A0B9F1000F00F0828009F1DA
:100AE000FF3300F1330209F10F0901E04B4506D055
:100AF00013F8010F02F8010F18780028F6D100232F
:100B000084F843300A9B4FF0000B042B28BF0423CA
:100B1000994604F1040AE362C4E9113B5046FFF729
:100B20000BFE04F11800FFF707FEC9F10503C4F836
:100B30004CB0A361246184F850B064623A463146F7
:100B40004046FFF75BFE206005B12C60434DFFF788
:100B50007BFEAB690133AB61D5F88C30C3B3D5F8FC
:100B6000EC30E06A63B305F11C06D5F8AC20D5F88B
:100B7000F030824238BFC5F8AC0000EB8000013392
:100B800006EB80005146C5F8F030FFF7D9FDFFF7BE
:100B90006BFED5F8EC3083B1D5F88C20E36AD26ACD
:100BA0009A420AD24FF080522D4B1A60BFF34F8FFA
:100BB000BFF36F8F0120BDE8F88F0120BDE8F88FEB
:100BC000D5F88C30DB6A834298BFC5F88C40CAE701
:100BD000C5F88C40AB69012B0DD0E06A05F11C060D
:100BE000C3E780F834908DE75046FFF789FD4FF05A
:100BF000FF30BDE8F88F05F11C063046FFF790FD89
:100C000005F13000FFF78CFD05F14400FFF788FD8A
:100C100005F15800FFF784FD05F1B00805F16C00FF
:100C2000FFF77EFD05F1C4074046FFF779FD384622
:100C3000FFF776FD05F1D800FFF772FD281DFFF7DD
:100C40006FFD05F19000FFF76BFDC5F88080E06A4D
:100C5000C5F8A47089E74FF0FF30AFE760180020B7
:100C600004ED00E070B50546244CFFF7EDFD002DC6
:100C700038D02E1D3046FFF78BFDAB6A1BB105F156
:100C80001800FFF785FDD4F8F030D4F88C2001333C
:100C9000AA42C4F8F0301DD0A369286B013BA361C0
:100CA000FFF72EFD2846FFF72BFDD4F880301B6898
:100CB0006BB94FF0FF33C4F88430FFF7D5FDD4F89B
:100CC000EC301BB1D4F88C30AB420ED070BDFFF7C6
:100CD0007BFEF2E731460A48FFF732FD2368013315
:100CE0002360EAE7D4F88C50C3E74FF08052054BFD
:100CF0001A60BFF34F8FBFF36F8F70BD6018002075
:100D00006418002004ED00E010B50446FFF79CFDD8
:100D100014B9044BD3F88C40E46AFFF7A5FD2046D4
:100D200010BD00BF60180020EFF311834FF0BF0229
:100D300082F31188BFF36F8FBFF34F8F10B9034A4F
:100D4000D2F88C00C06A83F31188704760180020C5
:100D500004292DE9F04128BF042104460D46FFF780
:100D600073FD002C49D0626CAA4242D0264F0BD2B0
:100D7000D7F88C30A34244D0D7F88C30DE6AAE422C
:100D80008CBF0026012605E0D7F88C60361BB6FA2A
:100D900086F67609E36A65649A42A26908BFE5624D
:100DA000002AA4BFC5F10505A561184D03EB830317
:100DB000626905EB83039A4212D104F104084046AC
:100DC000FFF7E6FCE06AD7F8AC304146984288BFAE
:100DD000C7F8AC0000EB800005EB8000FFF7B0FC2B
:100DE0003EB14FF080520A4B1A60BFF34F8FBFF3F2
:100DF0006F8FBDE8F041FFF737BD034BD3F88C4050
:100E0000B1E70026C6E700BF601800207C1800206C
:100E100004ED00E070B504462A4DFFF715FD002CE7
:100E20003AD0261D3046FFF7B3FCA36A1BB104F18C
:100E30001800FFF7ADFC31462348FFF781FC94F81A
:100E40005030012B04BF002384F85030FFF70CFD15
:100E5000D5F8EC309BB9D5F88C30A34200D070BDEA
:100E6000D5F8EC30DBB9D5F89010AA69914222D0C0
:100E7000D5F8F43013B30123C5F8A83070BDFFF7DF
:100E8000E3FCD5F880301B6893B94FF0FF33C5F809
:100E90008430FFF7E9FCDEE7D5F88C40C1E74FF07E
:100EA00080520A4B1A60BFF34F8FBFF36F8F70BD34
:100EB000FFF78AFDEDE7C5F88C3070BDBDE87040E6
:100EC000C4E500BF60180020F018002004ED00E029
:100ED00070B51E4DD5F88C3083420CD058B1044605
:100EE000FFF7B2FC626905F190039A4204D0BDE8B5
:100EF0007040FFF7B9BC70BDA36A05F1D8029342F8
:100F0000F5D0002BF3D1261D3046FFF741FCE36AF4
:100F1000D5F8AC200E48934288BFC5F8AC3003EB3F
:100F2000830300EB83003146FFF70AFCD5F88C30D1
:100F3000E26ADB6A9A42DAD34FF08052054B1A60BC
:100F4000BFF34F8FBFF36F8FD1E700BF6018002052
:100F50007C18002004ED00E02DE9F041EFF311874B
:100F60004FF0BF0383F31188BFF36F8FBFF34F8F31
:100F70001E4E426906F190039A4205D0002487F381
:100F800011882046BDE8F081846A06F1D8039C42AE
:100F9000F4D0002CF2D1D6F8F420054602BBD6F8E6
:100FA0008C30C46ADB6A00F104089C42404634BFBE
:100FB00000240124FFF7ECFBEB6AD6F8AC200C48C8
:100FC000934288BFC6F8AC3003EB8303414600EB85
:100FD0008300FFF7B5FB87F311882046BDE8F08159
:100FE00000F118011846FFF7ABFBC8E760180020B6
:100FF0007C18002030B50024124D83B005F1F803B1
:1010000001930094234678220F491048FFF746FDCC
:10101000012801D003B030BD4FF0BF0383F3118826
:10102000BFF36F8FBFF34F8F4FF0FF33C5F884309E
:10103000C5F8EC00C5F8884003B0BDE83040FFF7C4
:101040006DBC00BF60180020CC1D000871090008AD
:101050004FF0BF0383F31188BFF36F8FBFF34F8F40
:101060000022024BC3F8EC20FFF7ECBB6018002015
:10107000034AD2F8F4300133C2F8F430704700BFAD
:1010800060180020014BD3F88800704760180020DA
:10109000014BD3F88800704760180020014B986915
:1010A000704700BF6018002010B9024BD3F88C00C5
:1010B00034307047601800202DE9F843364CD4F8DE
:1010C000F430002B5BD1D4F888700137C4F88870F5
:1010D000AFB9D4F88030D4F8A420C4F88020C4F884
:1010E000A430D4F8FC300133C4F8FC30D4F880309C
:1010F0001B68002B4AD14FF0FF33C4F88430D4F87A
:1011000084300026BB4232D8DFF8909026E0D4F835
:101110008030DB68DD686B6805F104089F4238D3D6
:101120004046FFF735FBAB6A05F118000BB1FFF73E
:101130002FFBEB6AD4F8AC2003EB830093424146CB
:1011400009EB800088BFC4F8AC30FFF7F9FAD4F897
:101150008C30EA6ADB6A9A4228BF0126D4F88030D4
:101160001B68002BD3D14FF0FF33C4F88430D4F880
:10117000A830002B0CBF30460120BDE8F883D4F81E
:10118000003100260133C4F80031F0E7FFF71CFC02
:10119000B5E7C4F88430EAE7601800207C18002026
:1011A0002DE9F041354CFFF74FFBD4F8F430013B0B
:1011B000C4F8F430D4F8F450002D55D1A369002BB5
:1011C00052D04FF0010804F11C07D4F8D83023B3F3
:1011D000D4F8E430DD682E1D05F11800FFF7D8FAC9
:1011E0003046FFF7D5FAEB6AD4F8AC2003EB830066
:1011F0009342314607EB800088BFC4F8AC30FFF75C
:101200009FFAD4F88C30EA6ADB6A9A42DDD3C4F8DC
:10121000A880D4F8D830002BDAD13DB1D4F8803092
:101220001B683BBB4FF0FF33C4F88430D4F8005147
:101230004DB10126FFF740FF08B1C4F8A860013D99
:10124000F8D1C4F80051D4F8A8306BB14FF08052F7
:101250000B4B1A60BFF34F8FBFF36F8F0124FFF763
:1012600003FB2046BDE8F0810024FFF7FDFA20468D
:10127000BDE8F081FFF7A8FBD8E700BF60180020A9
:1012800004ED00E0124A10B5D2F8F44003680134CE
:10129000C2F8F440D2F8882059182CBF0124002449
:1012A000934201600CD964B9FFF77AFF38B94FF067
:1012B0008052084B1A60BFF34F8FBFF36F8F10BD82
:1012C0000CB98A42F0D2881A0021FFF789FBEBE7BC
:1012D0006018002004ED00E008B540B94FF08052DE
:1012E0000A4B1A60BFF34F8FBFF36F8F08BD084AD8
:1012F0000021D2F8F4300133C2F8F430FFF770FB6C
:10130000FFF74EFF0028E9D008BD00BF04ED00E064
:1013100060180020044BD3F8F4200AB9FFF796BBFD
:101320000122C3F8A82070476018002010B50C46B1
:10133000054BD3F88C101831FFF710FA2046BDE8A2
:1013400010400121FFF74CBB6018002010B5144677
:10135000084B41F00041D3F88C20D3F88C309161D8
:1013600003F11801FFF7ECF92046BDE81040012118
:10137000FFF736BB60180020C36870B5DD68164CF7
:1013800005F118063046FFF703FAD4F8F430EBB94C
:101390002E1D3046FFF7FCF9EB6AD4F8AC200F485D
:1013A000934288BFC4F8AC3003EB8303314600EBB3
:1013B0008300FFF7C5F9D4F88C30EA6ADB6A9A42F9
:1013C0008ABF01200020C4F8A80070BD314604F196
:1013D000D800FFF7B5F9EEE7601800207C18002070
:1013E00070B5C56841F00041104C01602E1DFFF73B
:1013F000CFF93046FFF7CCF9EB6AD4F8AC200C48B3
:10140000934288BFC4F8AC3003EB830300EB830046
:101410003146FFF795F9D4F88C30EA6ADB6A9A42D4
:1014200084BF0123C4F8A83070BD00BF601800203D
:101430007C18002010B50446FFF706FA054BD3F8D8
:10144000FC20D3F88830C4E90023BDE81040FFF742
:101450000BBA00BF60180020034BD3F8FC20D3F870
:101460008830C0E90023704760180020F8B50E46A8
:101470000546FFF7E9F93368164A591CD2F8884047
:1014800011D0D5E90071D2F8FC00874201D0A14209
:101490001BD9641AA3420BD8002301243360FFF741
:1014A000E3F92046F8BD0024FFF7DEF92046F8BD39
:1014B0001B1B0024D2F8FC10D2F888203360C5E949
:1014C0000012FFF7D1F92046F8BD0124FFF7CCF94F
:1014D0002046F8BD601800200122024BC3F8A82066
:1014E000704700BF60180020014BD3F88C00704794
:1014F00060180020064BD3F8EC2032B1D3F8F4305A
:10150000002B0CBF0220002070470120704700BF55
:1015100060180020F8B50746E0B11F4CC26AD4F845
:101520008C10C96A8A4216D28169002905DBD4F879
:101530008C10C96AC1F105018161184D02EB82026C
:10154000796905EB820291420ED00120D4F88C20FB
:10155000D26AFA62F8BDD4F88C20406CD36A984203
:101560002CBF00200120F8BD3E1D3046FFF710F9CA
:10157000D4F88C20D4F8AC30D06A31469842F86266
:1015800088BFC4F8AC0000EB800005EB8000FFF7DB
:10159000D7F80120F8BD00BF601800207C1800209B
:1015A00050B138B5C16A836C426C013B914283648F
:1015B00000D01BB1002038BD002070470446051D37
:1015C0002846FFF7E5F80B4A636CD2F8AC10C3F17C
:1015D00005008B42A0610848E36288BFC2F8AC30C6
:1015E00003EB830300EB83002946FFF7A9F80120F2
:1015F00038BD00BF601800207C18002058B1426C34
:10160000F8B5914238BF1146C36A8B4202D0826C52
:10161000012A01D0F8BD70478269124D002A03EB00
:10162000830305F11C064269C16206EB8303A4BF74
:10163000C1F1050181619A42ECD10446071D38468B
:10164000FFF7A6F8E06AD5F8AC303946984288BF73
:10165000C5F8AC0000EB800006EB8000BDE8F84068
:10166000FFF76EB860180020064AD2F88C10D2F846
:101670008C30D2F88C20DB6A8869C3F10503936152
:10168000704700BF60180020054BD3F88C2022B1B2
:10169000D3F88C108A6C01328A64D3F88C007047BE
:1016A0006018002070B51B4C06460D46FFF7CCF8BD
:1016B000D4F88C30DB6C2BB90121D4F88C3083F852
:1016C0005010D5B9FFF7D0F8FFF7BEF8D4F88C303A
:1016D000DD6C25B166B9D4F88C306A1EDA6400225C
:1016E000D4F88C3083F85020FFF7BEF8284670BD40
:1016F0000022D4F88C30DA64F1E72846FFF770F95D
:101700004FF08052044B1A60BFF34F8FBFF36F8FBF
:10171000D8E700BF6018002004ED00E02DE9F84391
:10172000244C154681460E469846FFF78DF8D4F8AE
:101730008C2092F85020022A0DD00121D4F88C7010
:10174000FA6C22EA0902FA64D4F88C3083F850105B
:10175000B8F1000F19D1FFF787F8FFF775F81DB141
:10176000D4F88C30DB6C2B60D4F88C3093F850308C
:10177000022B16D000250022D4F88C3083F850209C
:10178000FFF772F82846BDE8F8834046FFF728F9CE
:101790004FF08052084B1A60BFF34F8FBFF36F8F2B
:1017A000D9E7D4F88C200125D36C23EA0606D66449
:1017B000E1E700BF6018002004ED00E0F8B51E4628
:1017C00004460F461546FFF73FF80EB1E36C336051
:1017D000022194F850306A1E84F85010DBB2032ABC
:1017E00006D8DFE802F002340E0CE26C1743E7641F
:1017F000012B09D00124FFF737F82046F8BD022B52
:1018000029D0012BE764F5D1144D261D3046FEF793
:10181000BFFFD5F8AC20E36A1148934288BFC5F8F2
:10182000AC3003EB830300EB83003146FEF788FF07
:10183000D5F88C30E26ADB6A9A42DBD94FF08052ED
:10184000084B1A60BFF34F8FBFF36F8FD2E7E26C84
:101850000132E264CCE70024CDE700BF601800202D
:101860007C18002004ED00E0F8B5EFF311854FF08F
:10187000BF0484F31188BFF36F8FBFF34F8F0BB199
:10188000C46C1C60022490F85030013A80F850403B
:10189000DBB2032A06D8DFE802F0022C0D0BC26C83
:1018A0001143C164012B08D0012085F31188F8BDD4
:1018B000022B36D0012BC164F6D11B4E0446D6F85C
:1018C000F430D3B100F1180106F1D800FEF738FF6B
:1018D000D6F88C30E26ADB6A9A42E5D9069B13B1EE
:1018E0000123069A13600120C6F8A80085F3118829
:1018F000F8BDC26C0132C264D4E7071D3846FEF75A
:1019000047FFE36AD6F8AC200848934288BFC6F880
:10191000AC3003EB8303394600EB8300FEF710FF86
:10192000D6E70020C1E700BF601800207C18002027
:101930002DE9F041EFF311874FF0BF0383F31188D6
:10194000BFF36F8FBFF34F8F022390F8502080F8C2
:101950005030C36C012A03F10103C36403D087F341
:101960001188BDE8F081184D0E46D5F8F4300446D4
:10197000ABB100F1180105F1D800FEF7E1FED5F892
:101980008C30E26ADB6A9A42E9D90EB101233360F6
:101990000123C5F8A83087F31188BDE8F08100F174
:1019A00004084046FEF7F4FEE36AD5F8AC20074889
:1019B000934288BFC5F8AC3003EB8303414600EB8C
:1019C0008300FEF7BDFEDAE7601800207C180020D7
:1019D00038B578B10446FEF737FF94F85030022B43
:1019E00005BF00230125002584F85030FEF73CFF99
:1019F000284638BD014BD3F88C40ECE76018002036
:101A0000EC1D0008000000203C0400203C040020E5
:101A10008C19002008B562B6FEF726FCFEF76CFCB8
:101A2000FEF792FCFEE700BF002103E00B4B5B5882
:101A3000435004310A480B4B42189A42F6D30A4AE3
:101A400002E0002342F8043B084B9A42F9D3FEF728
:101A5000ABFC00F01FF8FFF7DDFF7047EC1D00083E
:101A6000000000203C0400203C0400208C190020D1
:101A7000FEE7000008B50021044600F083F8044B9F
:101A80001868C36B03B19847204600F083F900BF84
:101A9000D41D000870B50D4E0D4D761BB61006D046
:101AA0000024013455F8043B9847A642F9D1094E69
:101AB000094D00F073F9761BB61006D000240134EE
:101AC00055F8043B9847A642F9D170BDE01D0008C7
:101AD000E01D0008E81D0008E01D0008F0B48607BE
:101AE00043D0541E002A3ED0CAB2034602E014F18D
:101AF000FF3438D303F8012B9D07F8D1032C2BD9E1
:101B0000CDB245EA05250F2C45EA054516D9A4F1C5
:101B100010073F0903F1200606EB071603F1100238
:101B200042E9045542E902551032B242F8D104F0BC
:101B30000F040137032C03EB07130DD91E46224671
:101B4000043A032A46F8045BFAD8221F22F0030263
:101B50000432134404F003042CB1C9B21C4403F84A
:101B6000011B9C42FBD1F0BC704714460346C5E7FD
:101B7000024B13B1024800F079B870470000000032
:101B8000791C00082DE9F04F0F46B946344B85B05B
:101B90000390186800F094F8324B1B68019303F52A
:101BA000A4730293019BD3F848613EB34FF0010840
:101BB000DDF808A07468651E0FD40027013406EB19
:101BC0008404B9F1000F20D0D4F800314B451CD06B
:101BD000013D6B1CA4F10404F3D1234B73B1D6E98E
:101BE0000032002A34D1002B32D03046CAF80030FF
:101BF000AFF30080DAF80060002EDBD1184B1868D4
:101C000005B0BDE8F04F00F063B873682268013B8F
:101C1000AB420CBF75602760002AD9D0D6F8881176
:101C200008FA05F30B42D6F804B008D19047736860
:101C30005B45B7D1DAF80030B342C9D0B2E7D6F885
:101C40008C01D4F88010034207D103989047EEE747
:101C5000B2461E46002EADD1D0E708469047E6E7D3
:101C600038040020D41D00080000000000230146B5
:101C70001A46184600F02EB838B50A4C0A4D641BB7
:101C8000A4100AD004F18043013B05EB8305013C1D
:101C900055F804399847002CF9D1BDE8384000F0D8
:101CA00083B800BFEC1D0008E81D0008704700BFA6
:101CB000704700BF704700BF704700BF704700BF4C
:101CC000704700BF0120704701207047704700BF78
:101CD000704700BF2DE9F8432B4D0646286898460B
:101CE0000F469146FFF7ECFF284B1C68D4F84831AB
:101CF000002B3DD05A681F2A0DDC02F1010C16BBE7
:101D00000232C3F804C0286843F82270FFF7E0FFEE
:101D10000020BDE8F8831E4B7BB34FF4C870AFF3CF
:101D20000080034648B30020D4F848114FF0010C5E
:101D3000C3E900100246C4F84831C3F88801C3F86B
:101D40008C01002EDCD0012103EB8204C4F88890C2
:101D5000D3F8880191400843022EC3F88801C4F8E3
:101D60000881CDD1D3F88C010143C3F88C11C7E7AA
:101D700004F5A673C4F84831BCE72868FFF7A8FF4C
:101D80004FF0FF30C5E700BF38040020D41D000825
:101D900000000000FEE700BF00000000F8B500BF33
:101DA000F8BC08BC9E467047F8B500BFF8BC08BC3C
:041DB0009E46704794
:101DB40000000000000000000102030406070809F7
:101DC400000000000102030449444C4500000000E7
:041DD40010000020DB
:081DD80078E3FF7F0100000029
:081DE000711B00083501000829
:041DE80011010008DD
:101DEC000000000000A24A04AAAAAAAA100000201F
:101DFC0000000000FC02002064030020CC03002043
:101E0C0000000000000000000000000000000000C6
:101E1C0000000000000000000000000000000000B6
:101E2C0000000000000000000000000000000000A6
:101E3C000000000000000000000000000000000096
:101E4C000000000000000000000000000000000086
:101E5C000000000000000000000000000000000076
:101E6C000000000000000000000000000000000066
:101E7C000000000000000000000000000000000056
:101E8C000000000000000000000000000000000046
:101E9C000000000000000000010000000000000035
:101EAC000E33CDAB34126DE6ECDE05000B000000FA
:101EBC000000000000000000000000000000000016
:101ECC000000000000000000000000000000000006
:101EDC0000000000000000000000000000000000F6
:101EEC0000000000000000000000000000000000E6
:0C221C0000000000000000006819002015
:0400000508001A29AC
:00000001FF
