:020000040800F2
:10000000FF4F00205D210008A5210008A521000860
:10001000A5210008A5210008A52100080000000076
:100020000000000000000000000000007104000853
:10003000A521000800000000CD04000815050008F7
:10004000A5210008A5210008A5210008A521000878
:10005000A5210008A5210008A5210008A521000868
:10006000A5210008A5210008A5210008A521000858
:10007000A5210008A5210008A5210008A521000848
:10008000A5210008A5210008A5210008A521000838
:10009000A5210008A5210008A5210008A521000828
:1000A000A5210008A5210008A5210008A521000818
:1000B000A5210008A5210008A5210008A521000808
:1000C000A5210008A5210008A5210008A5210008F8
:1000D000A5210008A5210008A5210008A5210008E8
:1000E000A5210008A5210008A521000800000000A6
:1000F0000000000000000000000000000000000000
:0C01000000000000000000005FF808F1A3
:1001100010B5054C237833B9044B13B10448AFF341
:1001200000800123237010BD3C040020000000006B
:10013000CC24000808B5034B1BB103490348AFF3B7
:10014000008008BD0000000040040020CC2400080E
:10015000154B002B08BF134B9D46A3F5803A002199
:100160008B460F461348144A121A02F051F80F4BEF
:10017000002B00D098470E4B002B00D09847002052
:10018000002104000D000D48002802D00C4802F0A8
:1001900007F902F019F82000290001F09DFF02F094
:1001A00003F800BF0000080000000000000000008D
:1001B000000000003C040020D8190020A123000802
:1001C000AD23000808B5084C2369642043F02003E0
:1001D000236101F077FB2369642043F4001323615A
:1001E00001F070FBF0E700BF000801402DE9300886
:1001F00042014C01121A44EAD06363EB0103DD01B2
:10020000D40145EA526512196B418018594110F129
:10021000FF3241F1FF3301430AD000BF00BF12F1AA
:10022000FF3243F1FF33591C08BFB2F1FF3FF4D155
:10023000BDE83008704700BF30B44FF41F054FF0E1
:1002400000640E4B0E4A19680E4841F00101196016
:1002500059680A405A601A6822F0847222F4803287
:100260001A601A6822F480221A605A6822F4FE0288
:100270005A609D60846030BC704700BF001002402F
:100280000000FFF800ED00E0114A536803F00C0392
:10029000082B0ED153685168C3F38343C90303F19C
:1002A000020311D5526892030ED40A4A02FB03F3EB
:1002B00000E0084B064A084852680849C2F3031296
:1002C000825CD3400B607047054A02FB03F3F1E701
:1002D0000010024000127A00E82400080400002008
:1002E00000093D0028250008000000203C040020F3
:1002F0003C040020D819002010B5044643071CBF59
:1003000020F00704083401F0A9F90E4B1A6872B105
:1003100041F2F7315A6814448C420DD8A2420BD2F4
:1003200019685C608C1801F031FA204610BD064A4D
:1003300022F007021A60EBE7002401F027FA2046BA
:1003400010BD00BF5804002068040020704700BFA3
:100350000022014B5A60704758040020024B586835
:10036000C0F59F5018307047580400204FF0FF31FF
:10037000002200F10803816002604360C0E903339A
:10038000704700BF00230361704700BF436810B48B
:100390009C6802688C609C6801324B606160996067
:1003A00010BC08610260704730B40D686B1C11D03E
:1003B00000F1080200E01A4653681C68AC42FAD902
:1003C00004684B60013499608A6051600861046080
:1003D00030BC704702695368F2E700BF036910B48C
:1003E000D0E901215C689160816884424A6008BF5D
:1003F000596000211A680161013A1A60186810BC3E
:10040000704700BF00000000000000000000000076
:10041000002382B001934FF0BF0383F31188BFF331
:100420006F8FBFF34F8F019B002BFCD002B0704742
:1004300062480068006880F3088862B661B6BFF35E
:100440004F8FBFF36F8F00DF00BF00BF10B44FF0BE
:100450008074064B21F0010140F8202C40E9021481
:1004600040F80C3C10BC4038704700BF1104000835
:10047000074B19680868B0E8F00F80F30988BFF3EC
:100480006F8F4FF0000080F311884EF00D0E704713
:10049000EC180020704700BF4FF0BF0383F31188B2
:1004A000BFF36F8FBFF34F8F024A1368013313609E
:1004B000704700BF08000020034A1368013B136027
:1004C0000BB983F31188704708000020EFF309800F
:1004D000BFF36F8F0E4B1A6820E9F00F10602DE903
:1004E00008404FF0BF0080F3118801F009FA4FF087
:1004F000000080F31188BDE8084019680868B0E87A
:10050000F00F80F30988BFF36F8F7047AFF300805F
:10051000EC18002008B54FF0BF0383F31188BFF338
:100520006F8FBFF34F8F01F0BDF818B14FF08052BD
:10053000024B1A60002383F3118808BD04ED00E02C
:100540000022072130B4054B054D064C06481A60C1
:100550002A600460196030BC704700BF10E000E002
:1005600018E000E03F19010014E000E010B500249D
:10057000104B82B01A6842F47F021A601A6842F087
:100580007F421A60FFF7DCFF0B4B1C60FFF750FF48
:1005900001F0B6F901944FF0BF0383F31188BFF364
:1005A0006F8FBFF34F8F019B002BFCD0002002B058
:1005B00010BD00BF20ED00E00800002008ED00E0C5
:1005C00070B50446006CA56B28B926680135002E6D
:1005D0002ED0A56370BD1646024686B9606801F04C
:1005E00005FD6368216CA2680B44934205F1010587
:1005F000636015D3236830466360A56370BDE0680F
:1006000001F0F4FC226CE3685242216813448B42EF
:10061000E36002D2A3681A44E260022E03D00135DF
:100620000020A56370BD002DFAD101250020D0E780
:10063000A06801F0ABFAA660CBE700BF026C72B114
:100640000B4610B4D0E902411144A142C16028BF59
:10065000016810BC28BFC160184601F0C7BC7047D4
:1006600070B50546FFF718FF95F8454064B2002CB9
:1006700016DD6B6AA3B105F1240605E0013CE3B287
:100680005CB26BB16B6A5BB1304601F06BF900286C
:10069000F4D0013C01F016FAE3B25CB2002BF1D1C8
:1006A000FF2385F84530FFF707FFFFF7F5FE95F8C4
:1006B000444064B2002C16DD2B69A3B105F110068D
:1006C00005E0013CE3B25CB26BB12B695BB1304633
:1006D00001F048F90028F4D0013C01F0F3F9E3B24D
:1006E0005CB2002BF1D1FF2385F84430BDE87040A7
:1006F000FFF7E2BE70B504460E46FF25FFF7CCFEBD
:10070000D4E90F23002102FB03F22068D31A03442B
:100710000244A163C4E9022384F84450606084F871
:100720004550BEB923691BB9FFF7C6FE012070BD55
:1007300004F1100001F016F90028F5D04FF08052B6
:100740000A4B1A60BFF34F8FBFF36F8FFFF7B4FEF2
:10075000012070BD04F11000FFF708FE04F1240031
:10076000FFF704FEFFF7A8FE012070BD04ED00E0D6
:1007700070B506460D4651B100FB01F04830FFF759
:10078000BBFD044688B100F14803036005E0482042
:10079000FFF7B2FD044640B12460C4E90F650121B2
:1007A0002046FFF7A7FF204670BD0024204670BDFD
:1007B0002DE9F047002684B004468A4601921F4680
:1007C000B046DFF8FC9027E0FFF776FE00F046FF2A
:1007D000FFF762FE94F84430FF2B08BF84F8448092
:1007E00094F84530FF2B08BF84F84580FFF764FE7E
:1007F00001A902A801F030F9002850D1FFF74CFE02
:10080000A26BE36B9A4217D0FFF756FE2046FFF724
:1008100027FF00F0BBFF0126FFF73EFEA26BE36B54
:100820009A4220D3022F1ED0019D95B3002ECBD12A
:1008300002A801F007F9C7E7FFF73EFE019904F1AE
:10084000100001F069F82046FFF70AFF00F09EFF54
:100850000028E0D14FF08053C9F80030BFF34F8F2C
:10086000BFF36F8FD7E73A4651462046FFF7A8FE01
:10087000636AEBB938B14FF08052114B1A60BFF385
:100880004F8FBFF36F8FFFF717FE012004B0BDE855
:10089000F087FFF711FE284604B0BDE8F087204638
:1008A000FFF7DEFE00F072FF002004B0BDE8F08725
:1008B00004F1240001F056F80028DCD1E3E700BF82
:1008C00004ED00E010B5024600210120FFF750FFC3
:1008D000044638B1002383600360C3601A4619469A
:1008E000FFF766FF204610BD38B58568044601F065
:1008F000F1F8854201D0002038BDE368013BE36098
:100900000BB1012038BD20461A461946FFF750FFAB
:10091000012038BDF8B5EFF311864FF0BF0484F322
:100920001188BFF36F8FBFF34F8F856BC46BA542E8
:1009300005D3022B03D0002086F31188F8BD90F870
:100940004540174664B21A460546FFF739FE631C58
:1009500007D0013464B285F84540012086F3118840
:10096000F8BD6B6A002BF8D005F1240000F0FAFF07
:100970000028F2D0002FF0D001203860DCE700BF63
:1009800038B5EFF311844FF0BF0383F31188BFF341
:100990006F8FBFF34F8F826BC36B93420ED990F86A
:1009A000453001325BB282635A1C0BD001335BB21B
:1009B00080F84530012084F3118838BD002084F38D
:1009C000118838BD436A002BF4D024300D4600F066
:1009D000C9FF0028EED0002DECD001202860EAE706
:1009E0002DE9F043044685B089460192FFF754FD96
:1009F000A56B002D55D1019B002B6FD002A82E4670
:100A000001F020F8DFF8008104F124071FE0FFF770
:100A100043FDA36B002B52D1FFF74EFD01993846E1
:100A200000F07AFF2046FFF71BFE00F0AFFE38B95A
:100A30004FF08053C8F80030BFF34F8FBFF36F8F74
:100A4000FFF72AFDA56B65BB019B002B46D0FFF786
:100A500033FD00F003FEFFF71FFD94F84430FF2B39
:100A600008BF84F8446094F84530FF2B08BF84F831
:100A70004560FFF721FD01A902A800F0EDFF002865
:100A8000C5D02046FFF7ECFD00F080FEFFF704FD27
:100A9000A36B1BB3FFF710FDFFF7FEFCA56B002D4A
:100AA000D2D049462046013DFFF7C8FDA563236922
:100AB000D3B9FFF701FD012005B0BDE8F083FFF7D2
:100AC000FBFC2046FFF7CCFD00F060FEFFF7E4FCE6
:100AD000A56B002DE5D1019B002BB8D1FFF7ECFCF5
:100AE000002005B0BDE8F08304F1100000F03AFFEB
:100AF0000028DED04FF08052034B1A60BFF34F8FB7
:100B0000BFF36F8FD5E700BF04ED00E02DE9F043A0
:100B10004FF0000885B00446019146464746DFF88D
:100B200044911DE0FFF7B8FCA36B002B4AD1FFF7FF
:100B3000C3FC2368002B63D0019904F1240000F06A
:100B4000EBFE2046FFF78CFD00F020FE38B94FF099
:100B50008053C9F80030BFF34F8FBFF36F8F01266A
:100B6000FFF79AFCA36BABBB019D002D41D02EB3C8
:100B7000FFF7A2FC00F072FDFFF78EFC94F8443002
:100B8000FF2B08BF84F8447094F84530FF2B08BF52
:100B900084F84570FFF790FC01A902A800F05CFF03
:100BA0000028BFD02046FFF75BFD00F0EFFDFFF708
:100BB00073FCA36B6BB3FFF77FFCD0E702A800F0D8
:100BC00041FFD5E7FFF778FC2046FFF749FD00F02D
:100BD000DDFDC4E72268013BA363002A3DD0236901
:100BE00063BBFFF769FC4FF00108404605B0BDE864
:100BF000F083A846FFF760FC404605B0BDE8F083EF
:100C0000FFF74AFCA06800F07BFF8046FFF754FC2A
:100C100092E7FFF751FCB8F1000FE6D0FFF73CFC7C
:100C2000616A19B1236B1968C1F10501A06800F070
:100C3000DBFF4FF00008FFF73FFCD6E704F11000A0
:100C400000F090FE0028CCD04FF08052054B1A6087
:100C5000BFF34F8FBFF36F8FC3E701F00BF8A060B6
:100C6000BDE700BF04ED00E070B5856804460E46A0
:100C700000F030FF854208D031462046FFF746FF9E
:100C800010B1E3680133E36070BD0120E368034401
:100C9000E36070BD2DE9F041044684B088460192BE
:100CA000FFF7FAFBA56B002D52D1019B002B6CD0F6
:100CB00002A800F0C7FE3F4F04F124061EE0FFF734
:100CC000EBFBA36B002B51D1FFF7F6FB01993046EC
:100CD00000F022FE2046FFF7C3FC00F057FD30B9BC
:100CE0004FF080533B60BFF34F8FBFF36F8FFFF721
:100CF000D3FBA36B63BB019B002B46D0FFF7DCFB50
:100D000000F0ACFCFFF7C8FB94F84430FF2B08BFA1
:100D100084F8445094F84530FF2B08BF84F84550C0
:100D2000FFF7CAFB01A902A800F096FE0028C6D072
:100D30002046FFF795FC00F029FDFFF7ADFBA36B04
:100D40001BB3FFF7B9FBFFF7A7FBA36B002BD2D0B8
:100D500041462046E568FFF771FC636AE560D3B958
:100D6000FFF7AAFB012004B0BDE8F081FFF7A4FB68
:100D70002046FFF775FC00F009FDFFF78DFBA36B24
:100D8000002BE5D1019B002BB8D1FFF795FB00208C
:100D900004B0BDE8F08104F1240000F0E3FD002878
:100DA000DED04FF08052034B1A60BFF34F8FBFF37A
:100DB0006F8FD5E704ED00E02DE9F041EFF31186E8
:100DC0004FF0BF0484F31188BFF36F8FBFF34F8FD1
:100DD000846B24B9204686F31188BDE8F08107466C
:100DE00090F8445090466DB2FFF728FC013C6B1C14
:100DF000BC6308D001356DB287F84450012086F3FA
:100E00001188BDE8F0813B69002BF7D007F1100095
:100E100000F0A8FD0028F1D0B8F1000FEED00120BD
:100E2000C8F80000D7E700BF70B5EFF311854FF0A9
:100E3000BF0383F31188BFF36F8FBFF34F8F836BB3
:100E40001BB9184685F3118870BD0446C668FFF7C4
:100E5000F5FBE660012085F3118870BD10B50446EE
:100E6000FFF71AFBA46BFFF727FB204610BD00BF5E
:100E700038B50546FFF710FBA86BEC6B241AFFF79B
:100E80001BFB204638BD00BF806B704710B40B4C75
:100E90000022234659680833884205D001320A2AC5
:100EA000F8D110BCFFF752BA002304EBC20144F89A
:100EB00032304B6010BCFFF749BA00BF6419002004
:100EC000806BB0FA80F04009704700BF836BC06B45
:100ED000C01AB0FA80F04009704700BF002330B458
:100EE000074A52F8334002EBC30524B101330A2B01
:100EF000F7D130BC7047686042F8331030BC70479F
:100F00006419002010B4084C0022234659680833A5
:100F1000814205D001320A2AF8D1002010BC704766
:100F200054F8320010BC70476419002010B40A4C09
:100F30000022234659680833814204D001320A2A2C
:100F4000F8D110BC7047002304EBC20144F83230E2
:100F50004B6010BC704700BF6419002080B5134C73
:100F60004FF08057124E14E0FFF796FA2369DD68C0
:100F7000281DFFF733FAA369013BA3612368013BF6
:100F80002360FFF799FA286BFFF7E0F92846FFF78F
:100F9000DDF92368002BE7D1E369012BF9D937602C
:100FA000BFF34F8FBFF36F8FF3E700BF60180020D0
:100FB00004ED00E0044BD3F88020D268D268526878
:100FC000C3F88420704700BF60180020F8B50646BB
:100FD000184C0F46D4F88850D4F88C000430FFF732
:100FE000FDF9731C1BD0D4F88C30AD195D600DD2A7
:100FF000D4F88000D4F88C100431FFF7D5F9D4F878
:101000008430AB4288BFC4F88450F8BDD4F8A40043
:10101000D4F88C10BDE8F8400431FFF7C5B9002FB3
:10102000E1D0D4F88C1004F190000431BDE8F84010
:10103000FFF7ACB9601800200023114830B4C0F8A5
:10104000A830D0F8AC309A00D11800EB8101C96902
:1010500009B9013BF7E71A4492008418216A094D47
:1010600049682A449142216208BF4968CA6808BF9A
:101070002162C0F88C2030BCC0F8AC30704700BF93
:1010800060180020841800202DE9F84F4FEA8208EC
:101090000646404689461F460B9DFFF72DF900285E
:1010A00000F0CF8082465420FFF726F9044600283E
:1010B00000F09080A8F10408D04428F00708C0F898
:1010C00030A0B9F1000F00F0828009F1FF3300F188
:1010D000330209F10F0901E04B4506D013F8010F67
:1010E00002F8010F18780028F6D1002384F8433065
:1010F0000A9B4FF0000B042B28BF0423994604F1F0
:10110000040AE362C4E9113B5046FFF73BF904F1DE
:101110001800FFF737F9C9F10503C4F84CB0A36113
:10112000246184F850B064623A4631464046FFF785
:101130008DF9206005B12C60434DFFF7ADF9AB6927
:101140000133AB61D5F88C30C3B3D5F8EC30E06A2D
:1011500063B305F11C06D5F8AC20D5F8F030824217
:1011600038BFC5F8AC0000EB8000013306EB80000F
:101170005146C5F8F030FFF709F9FFF79DF9D5F8AA
:10118000EC3083B1D5F88C20E36AD26A9A420AD255
:101190004FF080522D4B1A60BFF34F8FBFF36F8F0C
:1011A0000120BDE8F88F0120BDE8F88FD5F88C301C
:1011B000DB6A834298BFC5F88C40CAE7C5F88C400B
:1011C000AB69012B0DD0E06A05F11C06C3E780F87E
:1011D00034908DE75046FFF7B9F84FF0FF30BDE887
:1011E000F88F05F11C063046FFF7C0F805F1300016
:1011F000FFF7BCF805F14400FFF7B8F805F1580017
:10120000FFF7B4F805F1B00805F16C00FFF7AEF890
:1012100005F1C4074046FFF7A9F83846FFF7A6F8DE
:1012200005F1D800FFF7A2F8281DFFF79FF805F198
:101230009000FFF79BF8C5F88080E06AC5F8A470BD
:1012400089E74FF0FF30AFE76018002004ED00E0C1
:1012500070B50546244CFFF71FF9002D38D02E1D20
:101260003046FFF7BBF8AB6A1BB105F11800FFF77A
:10127000B5F8D4F8F030D4F88C200133AA42C4F881
:10128000F0301DD0A369286B013BA361FFF75EF826
:101290002846FFF75BF8D4F880301B686BB94FF035
:1012A000FF33C4F88430FFF707F9D4F8EC301BB1F2
:1012B000D4F88C30AB420ED070BDFFF77BFEF2E766
:1012C00031460A48FFF762F8236801332360EAE7F2
:1012D000D4F88C50C3E74FF08052054B1A60BFF32F
:1012E0004F8FBFF36F8F70BD60180020641800200F
:1012F00004ED00E010B50446FFF7CEF814B9044B36
:10130000D3F88C40E46AFFF7D7F8204610BD00BF41
:1013100060180020EFF311834FF0BF0282F31188B1
:10132000BFF36F8FBFF34F8F10B9034AD2F88C0011
:10133000C06A83F3118870476018002004292DE9E2
:10134000F04128BF042104460D46FFF7A5F8002C04
:1013500049D0626CAA4242D0264F0BD2D7F88C30CB
:10136000A34244D0D7F88C30DE6AAE428CBF002650
:10137000012605E0D7F88C60361BB6FA86F67609AA
:10138000E36A65649A42A26908BFE562002AA4BFC5
:10139000C5F10505A561184D03EB8303626905EBF3
:1013A00083039A4212D104F104084046FFF716F86D
:1013B000E06AD7F8AC304146984288BFC7F8AC0025
:1013C00000EB800005EB8000FEF7E0FF3EB14FF040
:1013D00080520A4B1A60BFF34F8FBFF36F8FBDE887
:1013E000F041FFF769B8034BD3F88C40B1E7002612
:1013F000C6E700BF601800207C18002004ED00E064
:1014000070B504462A4DFFF747F8002C3AD0261D48
:101410003046FEF7E3FFA36A1BB104F11800FEF7A4
:10142000DDFF31462348FEF7B1FF94F85030012B21
:1014300004BF002384F85030FFF73EF8D5F8EC30B5
:101440009BB9D5F88C30A34200D070BDD5F8EC30F4
:10145000DBB9D5F89010AA69914222D0D5F8F430C2
:1014600013B30123C5F8A83070BDFFF715F8D5F800
:1014700080301B6893B94FF0FF33C5F88430FFF715
:101480001BF8DEE7D5F88C40C1E74FF080520A4BDD
:101490001A60BFF34F8FBFF36F8F70BDFFF78AFDE8
:1014A000EDE7C5F88C3070BDBDE87040C4E500BF05
:1014B00060180020F018002004ED00E070B51E4D0B
:1014C000D5F88C3083420CD058B10446FEF7E4FFC7
:1014D000626905F190039A4204D0BDE87040FEF7BE
:1014E000EBBF70BDA36A05F1D8029342F5D0002B83
:1014F000F3D1261D3046FEF771FFE36AD5F8AC2024
:101500000E48934288BFC5F8AC3003EB830300EB71
:1015100083003146FEF73AFFD5F88C30E26ADB6A89
:101520009A42DAD34FF08052054B1A60BFF34F8FC7
:10153000BFF36F8FD1E700BF601800207C18002038
:1015400004ED00E02DE9F041EFF311874FF0BF0308
:1015500083F31188BFF36F8FBFF34F8F1E4E426925
:1015600006F190039A4205D0002487F311882046A3
:10157000BDE8F081846A06F1D8039C42F4D0002CC7
:10158000F2D1D6F8F420054602BBD6F88C30C46AF6
:10159000DB6A00F104089C42404634BF0024012469
:1015A000FEF71CFFEB6AD6F8AC200C48934288BFCC
:1015B000C6F8AC3003EB8303414600EB8300FEF733
:1015C000E5FE87F311882046BDE8F08100F118019F
:1015D0001846FEF7DBFEC8E7601800207C180020E4
:1015E00030B50024124D83B005F1F8030193009447
:1015F000234678220F491048FFF746FD012801D005
:1016000003B030BD4FF0BF0383F31188BFF36F8F7A
:10161000BFF34F8F4FF0FF33C5F88430C5F8EC00AF
:10162000C5F8884003B0BDE83040FEF79FBF00BF5B
:1016300060180020082500085D0F00084FF0BF0368
:1016400083F31188BFF36F8FBFF34F8F0022024BDC
:10165000C3F8EC20FEF71EBF60180020034AD2F842
:10166000F4300133C2F8F430704700BF6018002036
:10167000014BD3F88800704760180020014BD3F865
:101680008800704760180020014B9869704700BFC0
:101690006018002010B9024BD3F88C00343070472A
:1016A000601800202DE9F843364CD4F8F430002BB4
:1016B0005BD1D4F888700137C4F88870AFB9D4F81A
:1016C0008030D4F8A420C4F88020C4F8A430D4F822
:1016D000FC300133C4F8FC30D4F880301B68002B98
:1016E0004AD14FF0FF33C4F88430D4F88430002658
:1016F000BB4232D8DFF8909026E0D4F88030DB6827
:10170000DD686B6805F104089F4238D34046FEF758
:1017100065FEAB6A05F118000BB1FEF75FFEEB6AE0
:10172000D4F8AC2003EB83009342414609EB8000E0
:1017300088BFC4F8AC30FEF729FED4F88C30EA6AD2
:10174000DB6A9A4228BF0126D4F880301B68002B40
:10175000D3D14FF0FF33C4F88430D4F8A830002B35
:101760000CBF30460120BDE8F883D4F800310026D4
:101770000133C4F80031F0E7FFF71CFCB5E7C4F80B
:101780008430EAE7601800207C1800202DE9F04141
:10179000354CFEF781FED4F8F430013BC4F8F43048
:1017A000D4F8F450002D55D1A369002B52D04FF03E
:1017B000010804F11C07D4F8D83023B3D4F8E4307E
:1017C000DD682E1D05F11800FEF708FE3046FEF715
:1017D00005FEEB6AD4F8AC2003EB8300934231465C
:1017E00007EB800088BFC4F8AC30FEF7CFFDD4F81B
:1017F0008C30EA6ADB6A9A42DDD3C4F8A880D4F858
:10180000D830002BDAD13DB1D4F880301B683BBB17
:101810004FF0FF33C4F88430D4F800514DB10126A5
:10182000FFF740FF08B1C4F8A860013DF8D1C4F843
:101830000051D4F8A8306BB14FF080520B4B1A60B6
:10184000BFF34F8FBFF36F8F0124FEF735FE2046A5
:10185000BDE8F0810024FEF72FFE2046BDE8F081B0
:10186000FFF7A8FBD8E700BF6018002004ED00E0F8
:10187000124A10B5D2F8F44003680134C2F8F440BB
:10188000D2F8882059182CBF01240024934201600B
:101890000CD964B9FFF77AFF38B94FF08052084B82
:1018A0001A60BFF34F8FBFF36F8F10BD0CB98A4220
:1018B000F0D2881A0021FFF789FBEBE760180020BF
:1018C00004ED00E008B540B94FF080520A4B1A60B1
:1018D000BFF34F8FBFF36F8F08BD084A0021D2F8C6
:1018E000F4300133C2F8F430FFF770FBFFF74EFF1E
:1018F0000028E9D008BD00BF04ED00E0601800201A
:10190000044BD3F8F4200AB9FFF796BB0122C3F8C1
:10191000A82070476018002010B50C46054BD3F87E
:101920008C101831FEF740FD2046BDE81040012123
:10193000FFF74CBB6018002010B51446084B41F06F
:101940000041D3F88C20D3F88C30916103F1180159
:10195000FEF71CFD2046BDE810400121FFF736BB15
:1019600060180020C36870B5DD68164C05F11806D4
:101970003046FEF733FDD4F8F430EBB92E1D304677
:10198000FEF72CFDEB6AD4F8AC200F48934288BFD9
:10199000C4F8AC3003EB8303314600EB8300FEF761
:1019A000F5FCD4F88C30EA6ADB6A9A428ABF0120DF
:1019B0000020C4F8A80070BD314604F1D800FEF73D
:1019C000E5FCEEE7601800207C18002070B5C568C3
:1019D00041F00041104C01602E1DFEF7FFFC304627
:1019E000FEF7FCFCEB6AD4F8AC200C48934288BFAD
:1019F000C4F8AC3003EB830300EB83003146FEF701
:101A0000C5FCD4F88C30EA6ADB6A9A4284BF0123B1
:101A1000C4F8A83070BD00BF601800207C180020FA
:101A200010B50446FEF738FD054BD3F8FC20D3F87B
:101A30008830C4E90023BDE81040FEF73DBD00BF7B
:101A400060180020034BD3F8FC20D3F88830C0E99D
:101A50000023704760180020F8B50E460546FEF7D3
:101A60001BFD3368164A591CD2F8884011D0D5E9BD
:101A70000071D2F8FC00874201D0A1421BD9641A40
:101A8000A3420BD8002301243360FEF715FD204646
:101A9000F8BD0024FEF710FD2046F8BD1B1B0024F6
:101AA000D2F8FC10D2F888203360C5E90012FEF7A6
:101AB00003FD2046F8BD0124FEF7FEFC2046F8BDDC
:101AC000601800200122024BC3F8A820704700BF15
:101AD00060180020014BD3F88C007047601800207C
:101AE000064BD3F8EC2032B1D3F8F430002B0CBF06
:101AF0000220002070470120704700BF60180020BE
:101B0000F8B50746E0B11F4CC26AD4F88C10C96A18
:101B10008A4216D28169002905DBD4F88C10C96A83
:101B2000C1F105018161184D02EB8202796905EB73
:101B3000820291420ED00120D4F88C20D26AFA623F
:101B4000F8BDD4F88C20406CD36A98422CBF00209A
:101B50000120F8BD3E1D3046FEF740FCD4F88C2035
:101B6000D4F8AC30D06A31469842F86288BFC4F8E5
:101B7000AC0000EB800005EB8000FEF707FC0120C5
:101B8000F8BD00BF601800207C18002050B138B5A7
:101B9000C16A836C426C013B9142836400D01BB1EB
:101BA000002038BD002070470446051D2846FEF77A
:101BB00015FC0B4A636CD2F8AC10C3F105008B42E4
:101BC000A0610848E36288BFC2F8AC3003EB83032E
:101BD00000EB83002946FEF7D9FB012038BD00BF8A
:101BE000601800207C18002058B1426CF8B5914272
:101BF00038BF1146C36A8B4202D0826C012A01D0E1
:101C0000F8BD70478269124D002A03EB830305F18A
:101C10001C064269C16206EB8303A4BFC1F1050142
:101C200081619A42ECD10446071D3846FEF7D6FB87
:101C3000E06AD5F8AC303946984288BFC5F8AC00A8
:101C400000EB800006EB8000BDE8F840FEF79EBB8D
:101C500060180020064AD2F88C10D2F88C30D2F8E6
:101C60008C20DB6A8869C3F105039361704700BF6C
:101C700060180020054BD3F88C2022B1D3F88C10CB
:101C80008A6C01328A64D3F88C0070476018002097
:101C900070B51B4C06460D46FEF7FEFBD4F88C30A3
:101CA000DB6C2BB90121D4F88C3083F85010D5B9F6
:101CB000FEF702FCFEF7F0FBD4F88C30DD6C25B1AA
:101CC00066B9D4F88C306A1EDA640022D4F88C30FD
:101CD00083F85020FEF7F0FB284670BD0022D4F8B0
:101CE0008C30DA64F1E72846FFF770F94FF0805244
:101CF000044B1A60BFF34F8FBFF36F8FD8E700BF5D
:101D00006018002004ED00E02DE9F843244C15464E
:101D100081460E469846FEF7BFFBD4F88C2092F819
:101D20005020022A0DD00121D4F88C70FA6C22EADE
:101D30000902FA64D4F88C3083F85010B8F1000F1F
:101D400019D1FEF7B9FBFEF7A7FB1DB1D4F88C3013
:101D5000DB6C2B60D4F88C3093F85030022B16D00B
:101D600000250022D4F88C3083F85020FEF7A4FB25
:101D70002846BDE8F8834046FFF728F94FF0805227
:101D8000084B1A60BFF34F8FBFF36F8FD9E7D4F8BA
:101D90008C200125D36C23EA0606D664E1E700BF58
:101DA0006018002004ED00E0F8B51E4604460F461A
:101DB0001546FEF771FB0EB1E36C3360022194F817
:101DC00050306A1E84F85010DBB2032A06D8DFE8D0
:101DD00002F002340E0CE26C1743E764012B09D0C9
:101DE0000124FEF769FB2046F8BD022B29D0012B08
:101DF000E764F5D1144D261D3046FEF7EFFAD5F80D
:101E0000AC20E36A1148934288BFC5F8AC3003EBBD
:101E1000830300EB83003146FEF7B8FAD5F88C3027
:101E2000E26ADB6A9A42DBD94FF08052084B1A60B3
:101E3000BFF34F8FBFF36F8FD2E7E26C0132E264E2
:101E4000CCE70024CDE700BF601800207C180020FC
:101E500004ED00E0F8B5EFF311854FF0BF0484F313
:101E60001188BFF36F8FBFF34F8F0BB1C46C1C6031
:101E7000022490F85030013A80F85040DBB2032A37
:101E800006D8DFE802F0022C0D0BC26C1143C164CE
:101E9000012B08D0012085F31188F8BD022B36D024
:101EA000012BC164F6D11B4E0446D6F8F430D3B1F1
:101EB00000F1180106F1D800FEF768FAD6F88C3068
:101EC000E26ADB6A9A42E5D9069B13B10123069ABE
:101ED00013600120C6F8A80085F31188F8BDC26C14
:101EE0000132C264D4E7071D3846FEF777FAE36A89
:101EF000D6F8AC200848934288BFC6F8AC3003EB54
:101F00008303394600EB8300FEF740FAD6E7002052
:101F1000C1E700BF601800207C1800202DE9F041C7
:101F2000EFF311874FF0BF0383F31188BFF36F8F77
:101F3000BFF34F8F022390F8502080F85030C36CCD
:101F4000012A03F10103C36403D087F31188BDE8BC
:101F5000F081184D0E46D5F8F4300446ABB100F1CF
:101F6000180105F1D800FEF711FAD5F88C30E26AB5
:101F7000DB6A9A42E9D90EB1012333600123C5F827
:101F8000A83087F31188BDE8F08100F104084046CD
:101F9000FEF724FAE36AD5F8AC200748934288BFDD
:101FA000C5F8AC3003EB8303414600EB8300FEF73A
:101FB000EDF9DAE7601800207C18002038B578B118
:101FC0000446FEF769FA94F85030022B05BF00234F
:101FD0000125002584F85030FEF76EFA284638BDFA
:101FE000014BD3F88C40ECE760180020844641EAAE
:101FF000000313F0030349D1403A23D30B68036075
:102000004B6843608B688360CB68C3600B69036176
:102010004B6943618B698361CB69C3610B6A03625E
:102020004B6A43628B6A8362CB6AC3620B6B036346
:102030004B6B43638B6B8363CB6BC363403040312B
:10204000403ADBD230320BD30B6803604B684360FD
:102050008B688360CB68C36010301031103AF3D2C4
:102060000C3205D351F8043B40F8043B043AF9D252
:10207000043208D0D2071CBF11F8013B00F8013B25
:1020800001D30B8803806046704700BF082A13D332
:102090008B07B1D010F00303AED0C3F10403D21A02
:1020A000DB071CBF11F8013B00F8013BA4D331F85A
:1020B000023B20F8023B9FE7043AD9D3013A11F8DA
:1020C000013B00F8013BF9D20B7803704B78437069
:1020D0008B78837060467047002002251A491B4C9C
:1020E0008A6900B542F004028A61216883B021F454
:1020F000400121602168034641F4001121602169FB
:10210000802241F0200121611149CDE900501148A0
:10211000FEF7BAFFFFF764FA21460F4A0023086969
:1021200040F02000086100BF00BF01339342FAD1A4
:102130000023086940F40010086100BF00BF0133AC
:102140009342FAD1EAE700BF0010024000080140C4
:1021500000250008C5010008006A1800002103E0FE
:102160000B4B5B58435004310A480B4B42189A42C0
:10217000F6D30A4A02E0002342F8043B084B9A4295
:10218000F9D3FEF759F800F01FF8FFF7A5FF7047E5
:1021900028250008000000203C0400203C0400200A
:1021A000D8190020FEE7000008B50021044600F021
:1021B00083F8044B1868C36B03B19847204600F0BE
:1021C00083F900BF1025000870B50D4E0D4D761B2C
:1021D000B61006D00024013455F8043B9847A642B7
:1021E000F9D1094E094D00F073F9761BB61006D0EF
:1021F0000024013455F8043B9847A642F9D170BD3C
:102200001C2500081C250008242500081C250008A2
:10221000F0B4860743D0541E002A3ED0CAB203460B
:1022200002E014F1FF3438D303F8012B9D07F8D1F5
:10223000032C2BD9CDB245EA05250F2C45EA0545DF
:1022400016D9A4F110073F0903F1200606EB071683
:1022500003F1100242E9045542E902551032B2423C
:10226000F8D104F00F040137032C03EB07130DD949
:102270001E462246043A032A46F8045BFAD8221F77
:1022800022F003020432134404F003042CB1C9B257
:102290001C4403F8011B9C42FBD1F0BC7047144660
:1022A0000346C5E7024B13B1024800F079B8704706
:1022B00000000000AD2300082DE9F04F0F46B9469D
:1022C000344B85B00390186800F094F8324B1B68CB
:1022D000019303F5A4730293019BD3F848613EB3C5
:1022E0004FF00108DDF808A07468651E0FD40027C0
:1022F000013406EB8404B9F1000F20D0D4F800318A
:102300004B451CD0013D6B1CA4F10404F3D1234BBD
:1023100073B1D6E90032002A34D1002B32D03046D6
:10232000CAF80030AFF30080DAF80060002EDBD18D
:10233000184B186805B0BDE8F04F00F063B873683B
:102340002268013BAB420CBF75602760002AD9D0E0
:10235000D6F8881108FA05F30B42D6F804B008D174
:10236000904773685B45B7D1DAF80030B342C9D003
:10237000B2E7D6F88C01D4F88010034207D1039855
:102380009047EEE7B2461E46002EADD1D0E7084694
:102390009047E6E738040020102500080000000000
:1023A000002301461A46184600F02EB838B50A4CEC
:1023B0000A4D641BA4100AD004F18043013B05EBD5
:1023C0008305013C55F804399847002CF9D1BDE844
:1023D000384000F083B800BF2825000824250008F5
:1023E000704700BF704700BF704700BF704700BF15
:1023F000704700BF704700BF012070470120704741
:10240000704700BF704700BF2DE9F8432B4D0646CB
:10241000286898460F469146FFF7ECFF284B1C684A
:10242000D4F84831002B3DD05A681F2A0DDC02F148
:10243000010C16BB0232C3F804C0286843F82270AE
:10244000FFF7E0FF0020BDE8F8831E4B7BB34FF49D
:10245000C870AFF30080034648B30020D4F8481199
:102460004FF0010CC3E900100246C4F84831C3F82C
:102470008801C3F88C01002EDCD0012103EB82041B
:10248000C4F88890D3F8880191400843022EC3F81D
:102490008801C4F80881CDD1D3F88C010143C3F879
:1024A0008C11C7E704F5A673C4F84831BCE7286867
:1024B000FFF7A8FF4FF0FF30C5E700BF380400204A
:1024C0001025000800000000FEE700BF000000002B
:1024D000F8B500BFF8BC08BC9E467047F8B500BF11
:0824E000F8BC08BC9E467047E1
:1024E80000000000000000000102030406070809BC
:1024F80000000000010203045461736B3100000006
:0C25080049444C45000000001000002079
:082514003CDCFF7F0100000028
:08251C00A522000835010008AA
:042524001101000899
:102528000000000000A24A04AAAAAAAA10000020DB
:1025380000000000FC02002064030020CC030020FF
:102548000000000000000000000000000000000083
:102558000000000000000000000000000000000073
:102568000000000000000000000000000000000063
:102578000000000000000000000000000000000053
:102588000000000000000000000000000000000043
:102598000000000000000000000000000000000033
:1025A8000000000000000000000000000000000023
:1025B8000000000000000000000000000000000013
:1025C8000000000000000000000000000000000003
:1025D80000000000000000000100000000000000F2
:1025E8000E33CDAB34126DE6ECDE05000B000000B7
:1025F80000000000000000000000000000000000D3
:1026080000000000000000000000000000000000C2
:1026180000000000000000000000000000000000B2
:1026280000000000000000000000000000000000A2
:0C2958000000000000000000B419002086
:040000050800215D71
:00000001FF
